{
  "_format": "hh-sol-artifact-1",
  "contractName": "DocumentRegistry",
  "sourceName": "contracts/DocumentRegistry.sol",
  "abi": [
    {
      "anonymous": false,
      "inputs": [
        {
          "indexed": true,
          "internalType": "bytes32",
          "name": "documentHash",
          "type": "bytes32"
        },
        {
          "indexed": false,
          "internalType": "string",
          "name": "ipfsHash",
          "type": "string"
        }
      ],
      "name": "DocumentRegistered",
      "type": "event"
    },
    {
      "anonymous": false,
      "inputs": [
        {
          "indexed": true,
          "internalType": "bytes32",
          "name": "documentHash",
          "type": "bytes32"
        }
      ],
      "name": "DocumentUnregistered",
      "type": "event"
    },
    {
      "inputs": [
        {
          "internalType": "bytes32",
          "name": "documentHash",
          "type": "bytes32"
        },
        {
          "internalType": "string",
          "name": "ipfsHash",
          "type": "string"
        }
      ],
      "name": "registerDocument",
      "outputs": [],
      "stateMutability": "nonpayable",
      "type": "function"
    },
    {
      "inputs": [
        {
          "internalType": "bytes32",
          "name": "documentHash",
          "type": "bytes32"
        }
      ],
      "name": "unregisterDocument",
      "outputs": [],
      "stateMutability": "nonpayable",
      "type": "function"
    },
    {
      "inputs": [
        {
          "internalType": "bytes32",
          "name": "documentHash",
          "type": "bytes32"
        }
      ],
      "name": "verifyDocument",
      "outputs": [
        {
          "internalType": "bool",
          "name": "",
          "type": "bool"
        }
      ],
      "stateMutability": "view",
      "type": "function"
    }
  ],
  "bytecode": "0x608060405234801561001057600080fd5b506109d2806100206000396000f3fe608060405234801561001057600080fd5b50600436106100415760003560e01c80637a84d10c14610046578063fa17185a14610062578063fe35089f1461007e575b600080fd5b610060600480360381019061005b9190610336565b6100ae565b005b61007c600480360381019061007791906104a9565b61017e565b005b61009860048036038101906100939190610336565b610266565b6040516100a59190610520565b60405180910390f35b60008082815260200190815260200160002060009054906101000a900460ff1661010d576040517f08c379a000000000000000000000000000000000000000000000000000000000815260040161010490610598565b60405180910390fd5b60008082815260200190815260200160002060006101000a81549060ff021916905560016000828152602001908152602001600020600061014e919061028f565b807f7afee1efce9e931671faaedd0bef37a217411bd77598f1c2614cee18f3687c5e60405160405180910390a250565b60008083815260200190815260200160002060009054906101000a900460ff16156101de576040517f08c379a00000000000000000000000000000000000000000000000000000000081526004016101d590610604565b60405180910390fd5b600160008084815260200190815260200160002060006101000a81548160ff021916908315150217905550806001600084815260200190815260200160002090816102299190610845565b50817fa4ada3b82f1b3a8134556f3b7ead0975a2e4814f94ea2fb8c50f04848f8e55538260405161025a919061097a565b60405180910390a25050565b600080600083815260200190815260200160002060009054906101000a900460ff169050919050565b50805461029b9061065e565b6000825580601f106102ad57506102cc565b601f0160209004906000526020600020908101906102cb91906102cf565b5b50565b5b808211156102e85760008160009055506001016102d0565b5090565b6000604051905090565b600080fd5b600080fd5b6000819050919050565b61031381610300565b811461031e57600080fd5b50565b6000813590506103308161030a565b92915050565b60006020828403121561034c5761034b6102f6565b5b600061035a84828501610321565b91505092915050565b600080fd5b600080fd5b6000601f19601f8301169050919050565b7f4e487b7100000000000000000000000000000000000000000000000000000000600052604160045260246000fd5b6103b68261036d565b810181811067ffffffffffffffff821117156103d5576103d461037e565b5b80604052505050565b60006103e86102ec565b90506103f482826103ad565b919050565b600067ffffffffffffffff8211156104145761041361037e565b5b61041d8261036d565b9050602081019050919050565b82818337600083830152505050565b600061044c610447846103f9565b6103de565b90508281526020810184848401111561046857610467610368565b5b61047384828561042a565b509392505050565b600082601f8301126104905761048f610363565b5b81356104a0848260208601610439565b91505092915050565b600080604083850312156104c0576104bf6102f6565b5b60006104ce85828601610321565b925050602083013567ffffffffffffffff8111156104ef576104ee6102fb565b5b6104fb8582860161047b565b9150509250929050565b60008115159050919050565b61051a81610505565b82525050565b60006020820190506105356000830184610511565b92915050565b600082825260208201905092915050565b7f446f63756d656e74206e6f742072656769737465726564000000000000000000600082015250565b600061058260178361053b565b915061058d8261054c565b602082019050919050565b600060208201905081810360008301526105b181610575565b9050919050565b7f446f63756d656e7420616c726561647920726567697374657265640000000000600082015250565b60006105ee601b8361053b565b91506105f9826105b8565b602082019050919050565b6000602082019050818103600083015261061d816105e1565b9050919050565b600081519050919050565b7f4e487b7100000000000000000000000000000000000000000000000000000000600052602260045260246000fd5b6000600282049050600182168061067657607f821691505b6020821081036106895761068861062f565b5b50919050565b60008190508160005260206000209050919050565b60006020601f8301049050919050565b600082821b905092915050565b6000600883026106f17fffffffffffffffffffffffffffffffffffffffffffffffffffffffffffffffff826106b4565b6106fb86836106b4565b95508019841693508086168417925050509392505050565b6000819050919050565b6000819050919050565b600061074261073d61073884610713565b61071d565b610713565b9050919050565b6000819050919050565b61075c83610727565b61077061076882610749565b8484546106c1565b825550505050565b600090565b610785610778565b610790818484610753565b505050565b5b818110156107b4576107a960008261077d565b600181019050610796565b5050565b601f8211156107f9576107ca8161068f565b6107d3846106a4565b810160208510156107e2578190505b6107f66107ee856106a4565b830182610795565b50505b505050565b600082821c905092915050565b600061081c600019846008026107fe565b1980831691505092915050565b6000610835838361080b565b9150826002028217905092915050565b61084e82610624565b67ffffffffffffffff8111156108675761086661037e565b5b610871825461065e565b61087c8282856107b8565b600060209050601f8311600181146108af576000841561089d578287015190505b6108a78582610829565b86555061090f565b601f1984166108bd8661068f565b60005b828110156108e5578489015182556001820191506020850194506020810190506108c0565b8683101561090257848901516108fe601f89168261080b565b8355505b6001600288020188555050505b505050505050565b60005b8381101561093557808201518184015260208101905061091a565b60008484015250505050565b600061094c82610624565b610956818561053b565b9350610966818560208601610917565b61096f8161036d565b840191505092915050565b600060208201905081810360008301526109948184610941565b90509291505056fea264697066735822122072bc058516d76055f2af7bca565152732d100c594d5752cabd76db3a1c2d11a464736f6c63430008130033",
  "linkReferences": {},
  "deployedLinkReferences": {}
}