{
  "_format": "hh-sol-artifact-1",
  "contractName": "DocumentRegistry",
  "sourceName": "contracts/DocumentRegistry.sol",
  "abi": [
    {
      "anonymous": false,
      "inputs": [
        {
          "indexed": true,
          "internalType": "bytes32",
          "name": "documentHash",
          "type": "bytes32"
        },
        {
          "indexed": false,
          "internalType": "string",
          "name": "ipfsHash",
          "type": "string"
        }
      ],
      "name": "DocumentRegistered",
      "type": "event"
    },
    {
      "inputs": [
        {
          "internalType": "bytes32",
          "name": "documentHash",
          "type": "bytes32"
        },
        {
          "internalType": "string",
          "name": "ipfsHash",
          "type": "string"
        }
      ],
      "name": "registerDocument",
      "outputs": [],
      "stateMutability": "nonpayable",
      "type": "function"
    },
    {
      "inputs": [
        {
          "internalType": "bytes32",
          "name": "documentHash",
          "type": "bytes32"
        }
      ],
      "name": "verifyDocument",
      "outputs": [
        {
          "internalType": "bool",
          "name": "",
          "type": "bool"
        }
      ],
      "stateMutability": "view",
      "type": "function"
    }
  ],
  "bytecode": "0x608060405234801561001057600080fd5b50610812806100206000396000f3fe608060405234801561001057600080fd5b50600436106100365760003560e01c8063fa17185a1461003b578063fe35089f14610057575b600080fd5b61005560048036038101906100509190610328565b610087565b005b610071600480360381019061006c9190610384565b61016f565b60405161007e91906103cc565b60405180910390f35b60008083815260200190815260200160002060009054906101000a900460ff16156100e7576040517f08c379a00000000000000000000000000000000000000000000000000000000081526004016100de90610444565b60405180910390fd5b600160008084815260200190815260200160002060006101000a81548160ff021916908315150217905550806001600084815260200190815260200160002090816101329190610685565b50817fa4ada3b82f1b3a8134556f3b7ead0975a2e4814f94ea2fb8c50f04848f8e55538260405161016391906107ba565b60405180910390a25050565b600080600083815260200190815260200160002060009054906101000a900460ff169050919050565b6000604051905090565b600080fd5b600080fd5b6000819050919050565b6101bf816101ac565b81146101ca57600080fd5b50565b6000813590506101dc816101b6565b92915050565b600080fd5b600080fd5b6000601f19601f8301169050919050565b7f4e487b7100000000000000000000000000000000000000000000000000000000600052604160045260246000fd5b610235826101ec565b810181811067ffffffffffffffff82111715610254576102536101fd565b5b80604052505050565b6000610267610198565b9050610273828261022c565b919050565b600067ffffffffffffffff821115610293576102926101fd565b5b61029c826101ec565b9050602081019050919050565b82818337600083830152505050565b60006102cb6102c684610278565b61025d565b9050828152602081018484840111156102e7576102e66101e7565b5b6102f28482856102a9565b509392505050565b600082601f83011261030f5761030e6101e2565b5b813561031f8482602086016102b8565b91505092915050565b6000806040838503121561033f5761033e6101a2565b5b600061034d858286016101cd565b925050602083013567ffffffffffffffff81111561036e5761036d6101a7565b5b61037a858286016102fa565b9150509250929050565b60006020828403121561039a576103996101a2565b5b60006103a8848285016101cd565b91505092915050565b60008115159050919050565b6103c6816103b1565b82525050565b60006020820190506103e160008301846103bd565b92915050565b600082825260208201905092915050565b7f446f63756d656e7420616c726561647920726567697374657265640000000000600082015250565b600061042e601b836103e7565b9150610439826103f8565b602082019050919050565b6000602082019050818103600083015261045d81610421565b9050919050565b600081519050919050565b7f4e487b7100000000000000000000000000000000000000000000000000000000600052602260045260246000fd5b600060028204905060018216806104b657607f821691505b6020821081036104c9576104c861046f565b5b50919050565b60008190508160005260206000209050919050565b60006020601f8301049050919050565b600082821b905092915050565b6000600883026105317fffffffffffffffffffffffffffffffffffffffffffffffffffffffffffffffff826104f4565b61053b86836104f4565b95508019841693508086168417925050509392505050565b6000819050919050565b6000819050919050565b600061058261057d61057884610553565b61055d565b610553565b9050919050565b6000819050919050565b61059c83610567565b6105b06105a882610589565b848454610501565b825550505050565b600090565b6105c56105b8565b6105d0818484610593565b505050565b5b818110156105f4576105e96000826105bd565b6001810190506105d6565b5050565b601f8211156106395761060a816104cf565b610613846104e4565b81016020851015610622578190505b61063661062e856104e4565b8301826105d5565b50505b505050565b600082821c905092915050565b600061065c6000198460080261063e565b1980831691505092915050565b6000610675838361064b565b9150826002028217905092915050565b61068e82610464565b67ffffffffffffffff8111156106a7576106a66101fd565b5b6106b1825461049e565b6106bc8282856105f8565b600060209050601f8311600181146106ef57600084156106dd578287015190505b6106e78582610669565b86555061074f565b601f1984166106fd866104cf565b60005b8281101561072557848901518255600182019150602085019450602081019050610700565b86831015610742578489015161073e601f89168261064b565b8355505b6001600288020188555050505b505050505050565b60005b8381101561077557808201518184015260208101905061075a565b60008484015250505050565b600061078c82610464565b61079681856103e7565b93506107a6818560208601610757565b6107af816101ec565b840191505092915050565b600060208201905081810360008301526107d48184610781565b90509291505056fea2646970667358221220f0f3be507f0095ba0b650fd5bc4246f5077d43af3f385ca47991a5d41af2e3d364736f6c63430008130033",
  "linkReferences": {},
  "deployedLinkReferences": {}
}